:1000000004308A00082C00000A108A100A118207A6
:1000100000340034003400340034003400345F34E1
:10002000003400340034073400340734003414340E
:100030007F3414347F34143424342A347F342A3403
:10004000123423341334083464346234363449347B
:100050005534223450340034053403340034003431
:1000600000341C342234413400340034413422340E
:100070001C340034143408343E3408341434083446
:1000800008343E34083408340034503430340034FA
:100090000034083408340834083408340034603438
:1000A0006034003400342034103408340434023412
:1000B0003E345134493445343E34003442347F3484
:1000C00040340034423461345134493446342134AC
:1000D000413445344B3431341834143412347F34C1
:1000E0001034273445344534453439343C344A34AB
:1000F000493449343034013471340934053403341B
:100100003634493449344934363406344934493470
:1001100029341E340034363436340034003400348C
:100120005634363400340034083414342234413424
:10013000003414341434143414341434003441347A
:10014000223414340834023401345134093406346E
:1001500032344934793441343E347E3411341134EC
:1001600011347E347F3449344934493436343E3492
:1001700041344134413422347F34413441342234D7
:100180001C347F3449344934493441347F34093490
:100190000934093401343E344134493449347A3421
:1001A0007F340834083408347F34003441347F34D9
:1001B000413400342034403441343F3401347F34FE
:1001C00008341434223441347F34403440344034D1
:1001D00040347F3402340C3402347F347F340434AE
:1001E000083410347F343E344134413441343E3499
:1001F0000000000000000A148A100A11023E0318D1
:100200008A0A82007F3409340934093406343E34C2
:100210004134513421345E347F3409341934293463
:100220004634463449344934493431340134013494
:100230007F34013401343F344034403440343F345F
:100240001F342034403420341F343F344034383499
:1002500040343F3463341434083414346334073482
:100260000834703408340734613451344934453427
:10027000433400347F344134413400340234043494
:100280000834103420340034413441347F34003495
:1002900004340234013402340434403440344034F1
:1002A0004034403400340134023404340034203407
:1002B00054345434543478347F34483444344434DB
:1002C00038343834443444344434203438344434B6
:1002D000443448347F343834543454345434183427
:1002E00008347E340934013402340C34523452342C
:1002F00052343E347F3408340434043478340034C7
:1003000044347D34403400342034403444343D346B
:1003100000347F3410342834443400340034413401
:100320007F34403400347C3404341834043478345A
:100330007C34083404340434783438344434443459
:10034000443438347C3414341434143408340834C9
:100350001434143418347C347C34083404340434B5
:1003600008344834543454345434203404343F343E
:100370004434403420343C344034403420347C34E1
:100380001C342034403420341C343C344034303469
:1003900040343C34443428341034283444340C344D
:1003A0005034503450343C344434643454344C3439
:1003B00044340034083436344134003400340034DA
:1003C0007F3400340034003441343634083400348F
:1003D0001034083408341034083478344634413446
:1003E000463478340A148A100A11F93E03188A0A2E
:1003F00082002034203420342034203450344F34D0
:100400004E34473420342034203420342034003417
:100410000A108A140A118207423479342034523483
:1004200061346D346F346E342034433461346C3451
:1004300076346F3420342034203447346F346E34B3
:100440007A3461346C3465347A3400340A108A1496
:100450000A118207203420342034203420344634DA
:100460006134633469346C342034203420342034D3
:10047000203400340A108A140A11820720342034F0
:100480002034203420344D346534643469346F347E
:100490002034203420342034203400340A108A14CC
:1004A0000A11820720342034203420344434693443
:1004B00066346934633469346C3420342034203435
:1004C00000340A108A140A118207203420342034A0
:1004D0002034203420344A34323420342034203440
:1004E00020342034203400340A108A140A11820780
:1004F0002034203420342034203420344934413412
:1005000020342034203420342034203400345F3030
:1005100084008313000803199B2A0130F800F701B7
:10052000F70B902AF80B8F2A4A30F700F70B962A20
:10053000992A800B8D2A08000830E400E40803198A
:10054000BA2A831685108312851063088039031D2B
:10055000AE2A8316051083120510B22A83160510E1
:100560008312051483168510831285140310E30D7E
:10057000E4039E2A080083168513831285136108FD
:10058000E3009C2208008316051383120513000064
:100590008316051383120517831685138312851797
:1005A0002130CB004B08E100BB2220088038CC0072
:1005B000E100BB221330E100BB222030CB004B080E
:1005C000E100BB22402C2008CB002130CC004C089D
:1005D000E100BB224B088038CD00E100BB22203077
:1005E000CC004C08E100BB22412C5F0807394038A1
:1005F000E000E100BB225E087F398038E000E100C6
:10060000BB225E08A4005F08A500080083168513BE
:10061000831285176208E3009C220800DE01DF01D7
:10062000F522CC01CB014C08013C031C232B031DFC
:100630001D2B4B08F73C031C232BE2010623CB0A9E
:100640000319CC0A132B0800F701F8016408031002
:100650006518F707F70CF80CE518F707F70CF80C16
:100660006519F707F70CF80CE519F707F70CF80C04
:10067000651AF707F70CF80CE51AF707F70CF80CF2
:10068000651BF707F70CF80CE51BF707F70CF80CE0
:10069000080021081F3C0318B22B21087F3C031CD3
:1006A000B22BA6012608043C031CA92B21084F3CB1
:1006B000031C692B20302102E300E4000530E50033
:1006C00024237808A200260822070420F800A300AB
:1006D0007B2B21084F3C03187B2B50302102E30079
:1006E000E4000530E50024237808A200260822074C
:1006F000F820F800A300E108031D822B2308E20084
:100700000623A72B2308E20083168513831285177F
:10071000E2090830E300E3080319A72B83168510CC
:100720008312851062088039031D9B2B83160510E8
:10073000831205109F2B8316051083120514831650
:100740008510831285140310E20DE3038B2BA60A98
:10075000522BE108031DAF2BE2010623B22BFF3021
:10076000E200062308004C08A1000130E100492303
:1007700008006008A100E101492308006108F801B0
:1007800060020318C62B6008F700D22BF70108306F
:10079000E200E00DF70D610877020318F700F80D8D
:1007A000E20BC92B080078085E08E0006430E10025
:1007B000BE237708DE0078083030031DE62BDF1CEF
:1007C000ED2BDF19ED2B5F1A2030E92BDF115F12C3
:1007D0005F14F8077808E000B9235E08E0000A30EB
:1007E000E100BE237708DE0078083030031DFE2BC1
:1007F000DF19022C5F1C022C5F1A2030F8077808E2
:10080000E000B9233030DE075E08E000B9230800BD
:10081000840183131F30830583168E15463083129F
:10082000A0000130A8002910AA01AB01AF010730D8
:100830009F0083168615061586140614051183126B
:1008400005118316851183128511831605128312F3
:1008500005128316861383128613831606138312DA
:1008600006138316861283128612831606128312CB
:1008700006128316811332308312DF008722C32AC7
:10088000E32A0E230C30E100BB22DE01DF01F5225A
:10089000CB014B08F221CB0AF700CC00B3230E307A
:1008A0004B02031D492CDE010230DF00F522CB0193
:1008B0004B080822CB0AF700E000B92319304B029D
:1008C000031D582C0830CB00FA30DF008722CB0BF9
:1008D000642CAA01AF01AB010130A8000E23DE0198
:1008E000DF01F522861DEB2CDE01DF01F522CB01B5
:1008F0004B08F221CB0AF700CC00B3230E304B0299
:10090000031D782CDE010230DF00F522280B942C29
:10091000CB014B082622CB0AF700CC00B3230F30C3
:100920004B02031D892C9F2CCB014B082622CB0A9E
:10093000F700E000B9230F304B02031D952CDE01B8
:100940000330DF00F5222808023C031DB32CCB0145
:100950004B083A22CB0AF700CC00B3230F304B02EE
:10096000031DA82CBE2CCB014B083A22CB0AF70062
:10097000E000B9230F304B02031DB42CDE0104301C
:10098000DF00F5222808033C031DD22CCB014B08C5
:100990004E22CB0AF700CC00B3230E304B02031DCE
:1009A000C72CDD2CCB014B084E22CB0AF700E00010
:1009B000B9230E304B02031DD32C0619E22CA808D4
:1009C000031DA80A0619EA2C2808043C031DEA2C7A
:1009D0000130A800722C0D30E100BB220230CB00A8
:1009E000FA30DF008722CB0BF02C0C30E100BB2269
:1009F0000E23861D4E2DDE01DF01F522CB014B08B3
:100A0000F221CB0AF700CC00B3230E304B02031DBA
:100A1000FF2CDE010230DF00F52229181B2DCB014F
:100A20004B086122CB0AF700CC00B3230E304B02F7
:100A3000031D102D262DCB014B086122CB0AF70098
:100A4000E000B9230E304B02031D1C2DDE010330E4
:100A5000DF00F522291C382DCB014B087422CB0A6C
:100A6000F700CC00B3230E304B02031D2D2D432D78
:100A7000CB014B087422CB0AF700E000B9230E30FB
:100A80004B02031D392D06194D2D00302918013058
:100A9000013CF800291078182914F92C2808013A8B
:100AA0000319592D033A0319682D013A0319772DBB
:100AB000852D1030B400BA000430B300B900013005
:100AC000BB000630C0000130BC00BD00AE00852D6B
:100AD0000A30B400BA000330B300B9000230BB00E2
:100AE0000430C0000230BC00BD00AE00852D0530D2
:100AF000B400BA000330B300B9000430BB000330C7
:100B0000C000BC00BD00AE00852D01303C07AC002C
:100B100002303C07AD000330B000B2010310340CCA
:100B2000173CB1000330B6003908533CB80003103D
:100B30003A0C173CB7000310400C2A3CBF000310CE
:100B4000400C183CBE000D30E100BB220230CB004F
:100B5000FA30DF008722CB0BA82D0C30E100BB223E
:100B60000E230130BC00BD000030861D0130CB00DB
:100B7000B108031DBD2D0030BE2D01304B050319FA
:100B8000C32D3008B1020030061D0130CB003408FF
:100B90002F3C3102031CCE2D0030CF2D01304B05F0
:100BA0000319D42D3008B1070030291C0130CB00C7
:100BB0000030861C0130CB05B708031DE12D003045
:100BC000E22D01304B050319E72D3608B70200303E
:100BD000291C0130CB000030061C0130CB053A083F
:100BE0002F3C3702031CF62D0030F72D01304B054A
:100BF0000319FC2D3608B707291C102EBC08031951
:100C0000102E37083E020318072E3B08B7023A0899
:100C100037073E020319102E031C102E3B08B7079E
:100C20003C08BF073D08BE073E08013C031C202EC0
:100C30003D08E400FF30E50024237808BD002C2E99
:100C40004008303C3E02031C2C2E3D08E400FF30DF
:100C5000E50024237808BD003F08533C03187C2E90
:100C6000AB010130AA072E08BC002E08BD001E30C3
:100C7000DE00DF01F5222A08DE001B30DF00D3236F
:100C80003030DE00DF01F5222F08DE001B30DF00F0
:100C9000D3230C30E100BB220230CB00FA30DF005E
:100CA0008722CB0B4E2E0D30E100BB220230CB0051
:100CB000FA30DF008722CB0B582E0C30E100BB222C
:100CC0000230CB00FA30DF008722CB0B622E0D30D2
:100CD000E100BB220230CB00FA30DF008722CB0BD1
:100CE0006C2E0C30E100BB220310400C2A3CBF00EC
:100CF0000310400C183CBE00BF08031DCB2EAB01F7
:100D00000130AF072E08BC002E08BD001E30DE00EB
:100D1000DF01F5222A08DE001B30DF00D323363046
:100D2000DE00DF01F5222F08DE001B30DF00D323B9
:100D30000C30E100BB220230CB00FA30DF0087220A
:100D4000CB0B9D2E0D30E100BB220230CB00FA30E0
:100D5000DF008722CB0BA72E0C30E100BB22023034
:100D6000CB00FA30DF008722CB0BB12E0D30E10033
:100D7000BB220230CB00FA30DF008722CB0BBB2E28
:100D80000C30E100BB220310400C2A3CBF000310D2
:100D9000400C183CBE00400831023E02031CF72EF6
:100DA0003408310740073E020319D82E0318F72EE6
:100DB000330832073F020319DF2E0318F72EBC0950
:100DC000BC0A0130AB072B08053C031DE92E2C089B
:100DD000BC002B080A3C031DEF2E2C08BD002B087D
:100DE0000F3C031DF72E2D08BC002D08BD00370851
:100DF0003E02031C272F3A08370740073E0203191B
:100E0000032F0318272F400838023F02031C272F07
:100E1000BC0803190D2FBC09BC0A0130AB072B0815
:100E2000053C031D162F2C09BC00BC0A2B080A3CEC
:100E3000031D1D2F2C09BD00BD0A2B080F3C031DEF
:100E4000272F2D09BC00BC0A2D09BD00BD0A2A08A8
:100E5000063C031C2E2F2F08063C031C692CDE01C8
:100E6000DF01F522C1014108053C031CCB2FC20163
:100E70004208533C031CC92FC301410DC400C40DDB
:100E8000C40DF830C4053F084202031C6E2F400811
:100E90003F07FF3E420203194F2F03186E2F4008F1
:100EA0003E07440203186E2F083044073E02031821
:100EB0006E2FC501C60108304407F8003E087802CD
:100EC000460203186C2F0310C50C40084602031895
:100ED0006A2FC517C60A5B2F4508C30432084202B1
:100EE000031C992F33083207FF3E420203197A2F61
:100EF0000318992F3408310744020318992F08303A
:100F0000440731020318992FC701C801083044076C
:100F1000F8003108780248020318972F0310C70C15
:100F2000340848020318952FC717C80A862F4708A8
:100F3000C30438084202031CC42F39083807FF3E97
:100F400042020319A52F0318C42F3A083707440299
:100F50000318C42F0830440737020318C42FC901EF
:100F6000CA0108304407F800370878024A0203181B
:100F7000C22F0310C90C3A084A020318C02FC91720
:100F8000CA0AB12F4908C3044308E2000623C20A73
:0A0F9000382FC10A332FB42D63007F
:02400E00103F61
:00000001FF
;PIC16F628A
;CRC=C104  CREATED="16-jul.-15 18:32"
